:020000040000fa
:080000000002040000000000f2
:020000040000fa
:100400002fa720000e7f22000e01880000000000b0
:100410000c00070020b12200010020001f0007008f
:10042000000020000000e000020032000000020096
:10043000000000003c160200000000000040da004e
:100440000000fe004440a900600120000000e00020
:100450000300320000002000a00188004440a800f2
:1004600000000600f03fb1000180b1000600350039
:10047000ee03090000000000403fb1000180b10020
:10048000fbff3d001000b000203fb000020035002f
:1004900000800900000000000000060091018800b3
:1004a000800078000000eb0015003700e28040007b
:1004b00032a0b4009101ba00e280400032a0b40042
:1004c0009102ba00e280400032a0b4000002eb00ca
:1004d000472bde00f507b200602ce10004003a0073
:1004e0000059eb008301e900fdff3e0004003700e6
:1004f0006128e100010032000082eb0004000700e7
:100500001101ba000200e000e8ff3a000000060016
:100510003159ba008301e9000c0032002159ba00b8
:100520008301e900080032000400e00003003a0003
:10053000e280400032a0b400f5ff370011d9ba00c4
:100540008301e900faff3a008100e800e180400001
:1005500032a0b400000006000040da000000fe00f7
:100560000a00fa0080017800e20f500028003e00e7
:1005700080538000e10f50000800320080232000eb
:100580000000e000050032000423200025232000a5
:100590004623200080017800040037000422200058
:1005a00025222000462220008322200014409000b3
:1005b0000004e000040035008009eb0014409000c6
:1005c0000074a00010429800154090000028a3007d
:1005d00003003a00154090000024a00090429800cb
:1005e0008001eb0007003700154090000008a300d1
:1005f000fdff320063c078000000fb00000b7800b4
:100600008301e800828f5100f7ff3a0008003700ad
:1006100030002000b0bf9f00c3bf9f00d1bf9f002c
:10062000e2bf9f006a80570000c0da006fb99700f0
:10063000020078000080fa0000000600889fbe00db
:100640008a9fbe008c1f7800930207009a02330035
:1006500003866c006450e100240032006420e10055
:10066000270032006150e100220032006120e100e9
:10067000210032008b854200eb07b1000134b80045
:10068000003ab8000804420089844a00013ab800e0
:100690000030b8008880400009014a00040033009f
:1006a0000000400081804800020149008b05e900fc
:1006b000c909dd0083017000010032001300200031
:1006c000c814de004814dd004709de001200b20045
:1006d000c808de00088470008702070001f0a1004e
:1006e0000cf0a70001f0a0007c0237006120e100bf
:1006f0007e0232000801be000200be00f7ff370094
:100700006150e100fcff3a00780237000001be00b2
:100710009f0207000470a70003f0a1006509b10063
:10072000160032000d0035006828e1000600350093
:10073000f0ff2f00f1ff27000300e00013003b0053
:1007400001002800000005000000400081804800f2
:100750008502e900fcff3a0008003700f88f4200ec
:1007600002003c008000eb00000005008100d10089
:100770000080d3008502e800fcff3a000300e0009f
:1007800002003b0060001000e0801800000006003e
:10079000889fbe008a9fbe00010578000100e0002e
:1007a0000400350008003c000000e000200032009a
:1007b0000500370060001000e080180002003b00d8
:1007c00001f02c001a0037000004be006011b800d0
:1007d0006b0920000982cf00020039000882cf0097
:1007e0000441b000694252000e00320008003b0094
:1007f00082817100610164008904d1000884d30002
:100800008b05e8000442e800f9ff3a0005003700d4
:100810000804440089844c008b05e9000442e90087
:10082000fbff3a00340207000af0a70001f0a00025
:100830004f05be004f04be000000060003f0a200fa
:10084000889fbe008a9fbe008c1f7800120207009e
:10085000190233006450e1004f0032006420e100cf
:100860005200320003826c0007003b000905d000f3
:100870000306d000820f54000c065d000200390010
:100880000200320089017800030678008582550055
:1008900004003d000003fd008103fd008502ea0025
:1008a0008b854200840f720002003b006000100044
:1008b000e08018006011b8000005eb007a28e10024
:1008c0000a00390006007800c75ddd00f707b200b6
:1008d000878075002d003700828171000a01780041
:1008e000610560008180d1000080d3008502e900ad
:1008f000f9ff3b00060440008784480002003b00eb
:1009000060041400e0841c000988a3000700320082
:100910008a81710082817100610164008904d100c3
:100920000884d3008b05e800170037000978a3007e
:1009300013003a000b00e000130034008b05e900bf
:100940000804440089844c000a4474000978a30018
:100950000d003a000b00e000070034008b05e900b1
:100960000804440089844c0001003a000b00200078
:100970000978a300f7ff32000001eb000200370006
:10098000828171000a017800db0107000cf0a700ea
:1009900001f0a000d10137006420e10002003a001c
:1009a000838f6c00d10133000801be000200be003d
:1009b000ca013700889fbe008a9fbe008c1f780046
:1009c0000004be00f20107000478a30026003a00ec
:1009d0006120e1002500320009f8a30025003a005b
:1009e0006420e10021003200f507b1000508a300f2
:1009f0000200320000004000818048006044b800de
:100a00000310200002002000000040008180480008
:100a10000805440089854c000a0541008b85490082
:100a20000a0550008b855800030033000a00be0001
:100a300002047400838474008301d1000281d30016
:100a4000830f7100f0ff3a008904d1000884d300bd
:100a50006001490082017800c1adde00fb07b000f3
:100a6000a50107009d0137000960a0000800be0035
:100a70009a01370012022000c24b8800f0ff2f00bd
:100a8000f1ff270095013700889fbe008a9fbe00b6
:100a90008c1f7800800107008701330003866c00fb
:100aa0006450e1002e0032006420e1003300320087
:100ab0006150e1002f0032006120e100310032007e
:100ac00085855500eb07b0000900200008042000d0
:100ad000050037000804440089844c000a003100f6
:100ae0000603430087834b000001530081815b00b4
:100af000f8ff33000203be000800a0000804440011
:100b000089844c00f6ff3900c639dd00830173008b
:100b100001003200130020008904d1000884d300b2
:100b20000998a300050032000800a7000300a000f8
:100b30008904d1000884d3008b05e8008904d10022
:100b40000884d3000001eb000281d2006a01070093
:100b500001f0a1000cf0a70001f0a0005f01370038
:100b60006420e100610132000801be000200be0005
:100b7000f7ff37006120e1005c0132006000b8003f
:100b8000f3ff37000000200001f82700f0ff3700d6
:100b90000081eb00930137000001eb009101370069
:100ba000889fbe008a9fbe008c1f78003a01070014
:100bb0001002200002003b00c04b88003e013700bd
:100bc0008a0062006408e10002003a00c04b88001d
:100bd000460137006108e100fcff32000800be005a
:100be00003047800a8ff070001f0a100e601070058
:100bf00008f0a600040037000001be0091042400a4
:100c0000b0fd20000dff070009f0a70001f0a200d1
:100c1000320137001400200040023700839f680033
:100c20000100e00002003d0060001000e0801800bc
:100c30000300e00002003d0060011100e0811900a6
:100c4000050007004f00e00002003b0060001000bc
:100c5000e0801800000006006022b80006022000b4
:100c60000000d0008180d2000482d2008582d200b0
:100c70000000a0000202520083825a0003003100eb
:100c80000202420083824a000000a1000603e9003c
:100c9000f3ff3a00000006000c00fa00889fbe0037
:100ca0008a9fbe008c9fbe00fb0007000206be00ac
:100cb000840578000200be00020020003202070016
:100cc00005003a008b02b300120020002e0207003c
:100cd00001003a00f8856d000c01be00c600070057
:100ce0000800be009b0032000b08a3009e003a00e3
:100cf0000df0a7000be0a00009f0a7000bf0a0008a
:100d000009f0a1000801be00bb0007000bf0a6001f
:100d10009500320001003c000bd0a0008acf750086
:100d2000b20033006000b8006250e1009900390061
:100d3000a1003e000b28a300a2003a000bf8a3007c
:100d4000060032000b58a300a70032000801be00c5
:100d5000a90007000800be00940032000800be0091
:100d6000300207000004be00050578000bf0a70064
:100d70000b30a6000bf0a1005b079800324f20005b
:100d800053f32300a3ff070005003d000800be0049
:100d900012002000300207000004be000a05e9002e
:100da0004a0798006150b90079fe0700008fbe0025
:100db0000c01be0021fe070054fe0700300798001a
:100dc0000100e00002003d0060001000e08018001b
:100dd000f2ff2700820f5000e08f580064003e00b1
:100de0000c00be0049fe070020079800f207200013
:100df000820f5000e08f580005003c0012f82f00d1
:100e0000f3ff2f00820f5000838f580009003d0030
:100e10000a00e0000300320001003c000201ea0089
:100e2000020578006000b800200798003a07980093
:100e3000190037003e0090006100b90054fe070021
:100e4000809fbe000c00be004109dd004811de009d
:100e50007208b100cc0107000005be001e01be00f3
:100e6000f6fd07004f01be0074fe0700809fbe0024
:100e70000c00be000a01be0070fe07001e01be008d
:100e8000eefd07004f01be006dfe07008221270026
:100e900013f32300e9fd07000005be002e009000bb
:100ea0006100b9003afe070001f0a2000c01be008b
:100eb00063fe07000006be000800be00080207002f
:100ec0000c01be00ddfd07000a01be005cfe07004c
:100ed000809fbe004a0007002e0590000af0a70080
:100ee0000a05ea00050037000800be000801be0040
:100ef000d2fd07000004be000c00be000801be00c9
:100f00000a00a700cdfd07000006be000a05d100bb
:100f1000f5ff3a005e01900002e0a60003003700f2
:100f20000001be0036000700d7fe07000004be0027
:100f30004f00be00410207000801be00bffd0700d0
:100f40003e019000c4010700de0590000bf0a700f1
:100f500001f0a2004f06be004f05be004f04be00c8
:100f60000080fa000000060025000700f9ff3700a6
:100f7000270007006000b8000bd0a7000bc0a0003e
:100f80000be0a7000bc0a2000bc0a70001f82700d0
:100f9000f0ff37000df8a300020032001e0007002a
:100fa000190007000bf8a300eaff32000b30a7007e
:100fb00001f0a200e7ff37000df8a300f9ff3a00a7
:100fc000f7ff37000801be000b000700e6ff320004
:100fd00001003c000df0a2006000b8000df0a70079
:100fe00009000700dbff37000b000700f1ff2700b7
:100ff000f0ff2f00d7ff37000100070005ff370083
:1010000001f823000000050001f82700000005009a
:10101000200220000100370010022000c04b880091
:1010200000000600f4ff2f003c0137000001be0065
:10103000570007000470a70003f0a10003f8a30005
:1010400013003a006509b1001000320009003500b4
:101050006928e100020035000100280000000500b9
:1010600000004000818048008502e900fcff3a0052
:1010700000000600f88f4200050035008100d10015
:101080000080d3008502e800fcff3a000000060063
:101090008000eb00000005000004be003c000700db
:1010a0000003be000405be000200be0038000700b9
:1010b000844f7500000006000200be006450e1008d
:1010c000050036006420e100020036000968a30034
:1010d00001003a000800be000160a0004f06780041
:1010e0004f05be004f04be0000000600f0ff2f00b9
:1010f000f1ff2700f9ff37008100200061805500d3
:101100000b003d000b00200061fe2f000100e100fc
:101110001d00340082817100610164008904d100e6
:101120000884d3000000e800faff3a0071002000b4
:1011300061006400030070000200600009003200da
:1011400061044400e0844c000988a50005003200d9
:101150008b05e8006808e10002003a008904d1002c
:101160000884d300f20f20000258e10005003d0082
:10117000c75ddd00f907b2008980750008007800be
:10118000000006000bf827008b0078000000050027
:10119000c70ade00f107b200f50fb2000800320006
:1011a000e1cf4200020032000170a00024000500df
:1011b000810f7000010032000408050044000500a2
:1011c000810f700002003a00140005008502e9005a
:1011d0000000400081c04800fcff3b000170a000ff
:1011e00024000500889fbe008a9fbe008c9fbe0021
:1011f000820578000004be00e5ff07000800be007d
:101200006420e1000700390002003a00f1ff2700e6
:10121000f0ff2f000160a00012022000c24b8800e6
:10122000550037006120e10003003a000b00a700e1
:1012300001f823005000370001f0a1000200210056
:101240009364240073fe07000800be00040035000c
:10125000b2fd2000930c2400da0107000004be0058
:101260000005eb000b00a6004f0dde0001f0a10011
:101270000004be0032982f0023ea2300effc070091
:101280000001eb0003f023000b00a70003f823008c
:101290006bfd07001dfd07000000a7000a00a2006b
:1012a0003bfd07000b00e0000300320002002000bd
:1012b00003f0230061fd070001f0a2000006be005c
:1012c0000200200093042400dcfc07000801be009b
:1012d0005bfd0700809fbe000c00be0022a22a001a
:1012e000d3a72300d5fc07004f01be0054fd070023
:1012f0000004be0001f0a1000200200003982300ba
:1013000044fe07000800be00190035000001be00c1
:10131000cafc07000006be00b2c52900e362230034
:10132000c6fc070022222b00f3942b0044fd07008b
:101330000c01be00c1fc0700e273280083c023003b
:101340003ffd07000c01be00bcfc070042aa2a00ba
:10135000a3e22b003afd07000c01be00b7fc07001a
:101360000801be00b5fc07000801be0034fd0700ff
:101370000a00a70001f0a2004f06be004f05be0004
:101380004f04be0000000600889fbe008a9fbe007a
:101390008c9fbe000004be007dff07000800be0059
:1013a000890678006420e10008003900040032005a
:1013b0000160a00012022000c24b880053003700d9
:1013c00091fc2300b0fd20004e0037000006eb002a
:1013d00009f0a10003f82300020020000800be006d
:1013e0000cfe07000600340001f823000000200076
:1013f0000801be00a4fd07000004be002c00200070
:101400000800be0093e82300320a230001fe070013
:10141000120034000801be00d1fd2300703d2b00f6
:1014200007fd07000005be00b3f32300f27a260093
:101430000800be0081fc070003f823000200200022
:10144000fefc07000801be00fdfc07000a01be000b
:101450008dfd07000004be000c06e8000800be0079
:1014600001f0a1000200200003982300e9fd07001d
:101470000800be00160035000801be006ffc070022
:101480000005be0032cd2c0043fb2300ecfc07001e
:10149000809fbe001269280003d52b000a00be0001
:1014a00066fc0700620f210013ef2b00e4fc07002d
:1014b0000a01be0061fc07004f01be0072fd07007b
:1014c0000801be005dfc07000801be00dcfc07004f
:1014d0000c00e0000b0032000c10a70001f0a2008d
:1014e000b2fd200093fc23006260e10004003200a2
:1014f00022a9200063f023000c10a70063f823004a
:10150000cffc07000df0a70001f0a2004f06be00bf
:101510004f05be004f04be0000000600889fbe00bd
:101520008a9fbe00841f7800dbfe07004f00780012
:1015300011003300f0ff2f00838f6c0006003b008a
:10154000040565000a00a7000800370009f0a6009e
:101550001000200008003700820f5400838f5c00c9
:10156000030039001000200001003e0000002000b0
:1015700009f0a7000000ea004f05be004f04be00be
:101580000000e00000000600889fbe008a9fbe00a9
:101590000003be00fefe0700850578008281520030
:1015a000020020006220e10004003a00f307b100cd
:1015b000040035007718e100040035000600be0085
:1015c000140037006000b8000f003700f50f20004e
:1015d000faff2f008502d1000a85d3008301e900bc
:1015e000fcff3b008184620000046500890f7400e9
:1015f000f2ff32008582ea000a85ea0081846200f7
:1016000000046500bcfe070007f0a70001f0a00081
:101610000081eb000200e0004f05be004f04be0059
:10162000000006000003be00d9fe07006220e100b2
:10163000020032000600be0005000500e507b1000b
:10164000f107b20004f023008480700007f0a700c7
:1016500001f0a000240005000003be00ccfe07003e
:101660006220e100020032000600be000000060019
:1016700085024100e30f20000328e10005003c0043
:10168000a3fe2f000328e10007003d000500200015
:1016900001003700f50f200020022000c04b880019
:1016a0006000b8000800370013002000838152005a
:1016b00005003d008100d1000080d3008301e800d7
:1016c000fcff3a0005002000c72add00f107b20048
:1016d0008580700007f0a70001f0a0000000060060
:1016e000889fbe008a9fbe008c9fbe00cdff070072
:1016f000850478000005be006420e10049003e003a
:101700006220e10003003200090035000bf8a3005d
:10171000440032000bf8a300080032001002200041
:10172000c04b8800f0ff2f00f1ff27003d0037007d
:1017300001f82f00000020003a0037003d000700ac
:101740003efc07000006be000a00be00324f20002b
:1017500053f3230033fe0700060034000c00be00e4
:101760003400070035fc07000006be000a00be007a
:10177000020037008904e9000c00be002d000700bc
:10178000aefb07002b0007002dfc07000001be0088
:101790000c00be00bcfc07000005be000001be003e
:1017a000a6fb07000006be00a2f32300430d2c0099
:1017b00023fc0700809fbe000c00be00d2e3270080
:1017c000d3f02b009dfb07004f01be00aefc0700cd
:1017d0000006be000a01be0098fb07000a01be0019
:1017e00017fc07000006be006148b900e8fb0700cf
:1017f0000005be0032082800e3952b008ffb070090
:101800000c01be000efc07000006be000a00be0070
:101810000200280013f3230088fb07000c01be0020
:1018200007fc07004f06be004f05be004f04be0078
:101830000000060003f0230002000500889fbe00a0
:101840008a9fbe008c9fbe000004be0050fe0700b1
:101850000800be006420e10048003e005500320050
:1018600072212700132b2400eefd070047003c00e7
:101870000800be00c2ec2800e32c2c00e5fc0700a9
:10188000470035000800be0001f0a1000200200062
:1018900003382300dffc0700430035000800be00ca
:1018a000b2a32a0083fb230064fb07000200200090
:1018b00003f0230001f0a70003f0a000e0fb070005
:1018c00092fb07000005be00b1fb070001f0a2007b
:1018d0000006be000200280013f3230057fb070098
:1018e0000801be00d6fb0700809fbe000c00be00b2
:1018f00032082800e3952b0050fb07004f01be0083
:10190000cffb07000006be000001be004bfb070036
:10191000809fbe004241250083b8230047fb07009b
:101920000200200003e82300c5fb07000c01be00f5
:1019300042fb07000006be004f00be00f2f92b007c
:10194000c3d423003dfb07000200200003f0230066
:10195000bbfb07000c01be00b8fb07000001be0086
:101960000c00be0048fc07000200200003f023002a
:10197000b3fb07006101450037ff07004f06be00bb
:101980004f05be004f04be000000060001f827000e
:101990000000200022022000c24b8800f7ff370021
:1019a0006000b800fbff370001f8230000002000b2
:1019b000f2ff370009f8a300f0ff32006000b80022
:1019c000eeff37000400200000003700889fbe00b3
:1019d0008a9fbe008c1f78004f26dd00aefd0700f9
:1019e000b5fd33006120e100430032006250e100a8
:1019f00041003e003e0039006420e1003c0032001e
:101a0000058255000f003b000402e80038003a0050
:101a1000800f5300818f5b00350034000800be004a
:101a200003f0a10001f0a60003f0a0000cf0a70055
:101a300083fb0700a9fd37000603430087834b00a3
:101a40000c4646000005530081855b000200330010
:101a50000a03be000c00a0000402e900f6ff3b00f0
:101a6000850578000602430087824b0004003a0097
:101a70006000b80009f0a70001f0a00097fd370052
:101a80000002520081825a000704e0000400330083
:101a90000603430087834b008b05e900faff3700fc
:101aa000090578000604be000203be006011b800fc
:101ab00091fd0700e00f5200e08f5a00070035004b
:101ac00002003c000c08a300040032000601be0026
:101ad00003f0a0000cf0a70059fb07000a8568007e
:101ae00001f0a1000af0a70001f0a0007bfd370083
:101af0000800be0079fd3700100220000cf0a6009f
:101b0000c04b880079fd3700881f780000047800fa
:101b10005001be004000be00040040008580480027
:101b20000601490087814900009cbe000294be0066
:101b30000400e1000588e1000690e1000798e1005b
:101b400002003100680044001008e8004f047800eb
:101b500000000600f4874700889fbe008a9fbe00f1
:101b60008c9fbe008e1f78000205be000004be00e0
:101b7000d4b79f00e5b79f00f6b79f0087bf9f00cf
:101b80000000eb00c0b79f00b0b79f00a0b79f0058
:101b900090b79f0080b79f000d042000bfb0970052
:101ba0004fb09700000140000000e0000f003d0032
:101bb0004f08de0000007100c0b79f009e000700c4
:101bc00001003d0012002000a100070001003d00bf
:101bd00012002000a6000700b1000700b6000700b1
:101be0000f004000c8ff0700220037004f08de004a
:101bf00000067100ccb79f008f00070001003d0078
:101c0000120020009200070001003d001200200099
:101c100097000700a20007000fb297009fb297003d
:101c20002fb39700bfb39700a90007000000520030
:101c300081805a0002015b0083815b0080b79f00b6
:101c400091b79f00a2b79f00b3b79f000007eb00ba
:101c50009f0007000020e10001a8e10002b0e100c0
:101c600003b8e100010031001e0020000e00560004
:101c7000c0b79f004fb297000400e0000700350096
:101c800010002000010020006011b800080470005e
:101c9000898470000a0571008b8571008d06e9004a
:101ca000beff3a000400e00003003d008200070090
:101cb0000f00400094ff07004fa897000000e000cd
:101cc00004003a000fb497009fb497002fb5970017
:101cd000bfb59700940007004f0778004f06be007d
:101ce0004f05be004f04be004f01b10000000600ca
:101cf000881f780018002000881f780095ff0700d3
:101d00008f87e9004f04780000000600801feb0079
:101d100090ff07008f87e90000000600889fbe0043
:101d20008a9fbe008c1f78006e00070007003d00f0
:101d300073000700e00f5b00e08f5b0007003d00d1
:101d4000320007000006eb000400370034000700f3
:101d500002003d002a0007001c002000720007005e
:101d6000e3ff07000203be000002be000c00e0001b
:101d700001003200220007000400be000601be0080
:101d80004f0678004f05be004f04be00000006005d
:101d9000889fbe008a9fbe008c1f780051000700fc
:101da00005003d0056000700e00f5b00e08f5b0080
:101db00006003d00040037001900070003003d0045
:101dc0006000b8006011b80010000700560007005e
:101dd000ceff07000203be000002be000c00e000c0
:101de00001003200060007000400be000601be002c
:101df0004f0678004f05be004f04be0000000600ed
:101e00006000b8006011b800000037000402500004
:101e10008582580006035900878359000000060098
:101e20000006eb00e00f5200e08f5a00e00f5b006d
:101e3000e08f5b00000006000180400090b79f002b
:101e40000001eb008fb097000100e00000000600e9
:101e50000200700090b79f000180400080b79f0093
:101e60000001eb00ffa897000100e0000000060061
:101e70000200700080b79f00018040006faa9700a9
:101e8000cf20de0001007000f0af9f00040242008e
:101e9000250007004f18de00000272000000060057
:101ea000e4af9f000804440089844c000a054d00fb
:101eb0008b854d00000006003fb29700cfb297001f
:101ec0005fb39700efb3970000fe2f0000000600fd
:101ed0003fb09700cfb097005fb19700efb1970088
:101ee000000006000205be000004be00e00f500026
:101ef000e08f5800e00f5900e08f59000000060005
:101f00006000b8006011b8000804500089845800cf
:101f10000a0559008b8559001c002000e00f520073
:101f2000e08f5a00000006000800be000a01be0053
:101f3000000006000000fa00cfb897006881570043
:101f400020a52000020007000080fa000000060023
:101f5000fe874700889fbe008a9fbe008c9fbe0000
:101f60008e1f7800f0b79f000107780082bf9f00a6
:101f70000000eb00a0b79f009f0237008006eb0037
:101f800050c2b30080cf5000090032000100fb00b6
:101f9000ffb09700a3020700e10f40009602320055
:101fa000afb097008100e800a1b79f009202370010
:101fb0009e407800d0c2b30080cf50000c003200a9
:101fc00007003c006d40500080cf50000a003200f6
:101fd0006b40400080cf50000e003a0008003700f0
:101fe00000c3b30080cf50000a003a00060037005b
:101ff0000d30a000050037000d00a00003003700e1
:102000000d10a000010037000d20a0000e07e80011
:10201000e7ff37000d18a300010032000d00a100fa
:102020000d38a300010032000d20a1000100fb00cb
:1020300002fd2f0002004000e90f50000e003e009c
:102040000002eb00c4b79f0082017800cfb2970076
:102050006a28b9001e01fb00000141000301410094
:10206000c2b79f005e00fb0003004000e90f500074
:102070000b003e00f5ff37000006eb00ccb79f00d9
:10208000a0c2b30080cf500005003a000fb89700ff
:10209000c000780080bf9f00c1b79f000e07e80016
:1020a0000001eb00b2b79f00e0c2b3009e4f1000ea
:1020b00018003a000de0a0008e00e80064405000d7
:1020c000914f100002003200010778000c00370029
:1020d0000fba9700c402780084bf9f00b5b79f0075
:1020e0000e87e8000b0037003fb697006a60b90022
:1020f0000000410003004000b0b79f000e07e80059
:102100001e01fb0003fd2f0003004100e90f5000fa
:10211000f5ff3600be407800e1d79f00c0c6b3008f
:1021200080cf5000220032000f003c006940500078
:1021300080cf50007700320004003c000104e00032
:10214000310232006b4050000f00370040c6b30030
:1021500080cf5000930032006540400080cf500097
:102160008b003a008f00370030c7b30080cf50009b
:102170001a00320007003c006440500080cf50003d
:10218000110032000040e80080cf500080003a008b
:102190000f00370050c7b30080cf500080003200de
:1021a0006340400080cf500079003a0009003700ba
:1021b000000028000d48a30001003a0000012000a3
:1021c00080867600d3ff37000d60a00075003700d1
:1021d0000d50a0000d70a000720037008fb897005e
:1021e0004100780081bf9f00000478000000e000fb
:1021f00001003a00a8a120008004eb000100370094
:102200008104e80089007800088044001004e000a0
:10221000fbff3a003fb197000200e00003003200ec
:10222000890f510001003100820478000002eb00a8
:10223000e4af9f00cfb29700898f520002003600b2
:1022400009805200e0af9f004368de00e1066000b5
:102250001b003a000d06780009003700ffb0970018
:1022600000022000ef010700e10f400003003200f0
:102270002fb097000000e800a0b79f000c06e80010
:10228000efa89700810f5600f4ff3a000081eb00a1
:10229000e2af9f000a003700880078003100fb00a1
:1022a00001047800ffb09700de010700e10f400055
:1022b000030032002fb297000402e800a4b79f0089
:1022c0000900e90080047800e10f4000f2ff3a00c5
:1022d0000006eb000d00e0000a003a00c6013700de
:1022e000ffb0970000022000ce010700e10f400080
:1022f00003003200afb297008502e800a5b79f0047
:102300000c06e8006fa89700800f5600f4ff3a0013
:10231000b90137008fb897004100780081bf9f0056
:10232000cf80de0001017800820178000205be0046
:102330000004be000203be000002be004822de0010
:10234000482edd0004027600e4d79f000d48a3006c
:102350000a0032000404e00008003200e14f4200ad
:102360000600320071fd2f0001804700044878000c
:10237000184098002900200002003700f0d79f0085
:102380001900200072fd2f0002844700a1ff3700d2
:1023900064fd2f0004844700190020009dff3700d2
:1023a0000d0cb3000d007800000cb20028003a00bc
:1023b0000d00e00005003d008fba97004505be0006
:1023c0004504be0085bf9f00140037000d48a300e0
:1023d0000b0032000fbe97004c00be008cbf9f0068
:1023e0004f89de00cf91de000002be0002037800bc
:1023f000820378000605be000404be000700370013
:102400008fb897004100780081bf9f0000047800da
:10241000cfc4de00090578008a057800e00f54007b
:10242000e08f5c00e00f5d00e08f5d001f003d006d
:102430003d00b3006000b8006011b800080450000f
:10244000898458000a0559008b8559001700370008
:102450000d00e00005003d000fb997004205be00e9
:102460004204be0082bf9f00100037000d48a30049
:10247000070032000fba97004400be0084bf9f00df
:102480006011b8000205be000004be00070037005e
:102490008fba97004500780085bf9f000004780040
:1024a000090020000a0020000b0020003fb6970022
:1024b0000c00e00007003a00e00f5400e08f5c00e1
:1024c000e00f5d00e08f5d0002003a001000200088
:1024d000b0b79f008d007800010cb200e1b79f00fb
:1024e00000042000808f50003000320003003c00c8
:1024f0000100e00008003200400037000008200022
:102500006fb19700800f510014003200000c2000c2
:10251000800f510039003a0014c0b300a597200085
:102520000b0037000400fb004300dd000500400005
:102530005001be004000be000040e10001c8e100c3
:1025400002d0e10003d8e1002b0039000442e8008a
:10255000f44f5200f3ff3a0027003700000120003b
:10256000010020006011b80014c0b3000040e10079
:1025700001c8e10002d0e10003d8e1001e003900eb
:10258000450020000000d0008180d2000281d200ee
:102590008381d2008502e900faff3a000442e80094
:1025a000f04f5200f1ff3a00130037008000200086
:1025b000010020006011b80014c0b3000040e10029
:1025c00001c8e10002d0e10003d8e1000a003900af
:1025d0003c0020000000d0008180d2000281d200a7
:1025e0008381d2000c06e900faff3a000442e800b9
:1025f000f54f5200f1ff3a00e4d79f00efd097006b
:102600000100fb003fb19700820f500002003d0027
:10261000e2d79f00040037003fb29700800f5200be
:1026200001003d00b0b79f00cfb297000500e00069
:102630000400320063806600020032008502e90077
:10264000c5b79f000de8a3000b0032004fb69700fe
:102650003fb09700800f560003003c008000eb0065
:10266000c1b79f00040037004fb197003fb29700f9
:1026700004015100c2b79f00efd297000500fb0094
:102680000006eb00dcaf9f00cfb09700808f5000ba
:102690000200340000805000d0af9f000d28a3003e
:1026a00037003200e18066000d18a3000c003200f4
:1026b000d00220000100e00001003a000080e900a3
:1026c000ffb09700d7000700e10f40000e00320076
:1026d0002fb197000201e800a2b79f000a0037005f
:1026e0000100e00008003200ffb097000002200067
:1026f000cc000700e10f4000030032002fb297002a
:102700000402e800a4b79f00dfaa97000500e000dc
:102710000f0032000006eb00ffb09700000320001e
:10272000c0000700e10f4000030032002fb0970007
:102730000000e800a0b79f000c06e800dfa89700a3
:10274000810f5600f4ff3a000001eb00d2af9f006a
:102750003fb29700c320dd0020972000808040001a
:1027600091b79f004220dd006400500080b79f00b9
:102770006320b900f0af9f0063065000840037006b
:10278000dfaa97000500e0001100320068806600b3
:102790000f003a0000067800ffb09700000220000a
:1027a000a0000700e10f4000030032002fb09700a7
:1027b0000000e800a0b79f000c06e800dfa8970023
:1027c000810f5600f4ff3a000001eb00d2af9f00ea
:1027d000e18066000d18a3000c003200d00220003a
:1027e0000100e00001003a000080e900ffb097001e
:1027f0008c000700e10f4000d5ff32002fb2970098
:102800000402e800a4b79f00d1ff37000100e000f8
:10281000cfff3200ffb097000002200081000700c8
:10282000e10f4000caff3200afb297008502e80016
:10283000a5b79f00c6ff370000042000efb0970047
:10284000808f50003100320003003c000100e000a6
:10285000080032003e003700000820006fb19700ea
:10286000800f510011003200000c2000800f510039
:1028700037003a001fb097003002be002003be00b0
:102880000800be000a01be0019fd0700a4002000d8
:10289000050020006033b8001cfd070004c3b3002e
:1028a00004424000e4d79f002900370015a2200011
:1028b000d5b79f000d58a30002003a0020a32000c6
:1028c000d0b79f0014002000050020006033b8003e
:1028d0008fb097008100e900050033000402d000aa
:1028e0008582d2000683d2008783d200f9ff3700a9
:1028f0000800be000a01be00fdfc07006f0060007a
:102900005fb197006240780010003700140020008b
:10291000050020006033b8000c0078000000e900da
:10292000050033000402d0008582d2000683d20065
:102930008783d200f9ff37000800be000a01be00fd
:10294000ebfc0700674060000043b000e0d79f0049
:10295000efd097000100fb00ffb0970031000700a7
:10296000e10f4000030032002fb197000201e800a0
:10297000a2b79f001fb297006802520094b79f0051
:102980008fb29700e482520085b79f00630656001d
:10299000d0ff2f003fb197000090b9007faa9700a9
:1029a0000000420063005000800f5600a2ff3a0072
:1029b0000d38a30010003200dfaa97000500e000e8
:1029c0000d0034000006eb00ffb09700000220006d
:1029d00014000700e10f4000030032002fb0970001
:1029e0000000e800a0b79f000c06e800dfa89700f1
:1029f000810f5600f4ff3a00be407800e1d79f00f7
:102a00000104e0005dfd3a002fb097004f07780009
:102a10004f06be004f05be004f04be00ef01b100df
:102a200000000600889fbe000001780001047800c5
:102a3000b10090000118a3003d0032000198a300ee
:102a400003003a00180090000000e00038003a004f
:102a50000190a0003104980082047800f90fb200c0
:102a6000180090000000e00002003a0028009000ea
:102a7000000c7800ea8f540006003a0038009000fd
:102a80000078a30003003a0088007800d0002000fe
:102a9000e4ff07009800900058009000808f5000dd
:102aa0000b0032000100e8001004980018007800c4
:102ab00009587800000c780011c0b300e0a620008f
:102ac00001487800ea8f54000600320019003700f0
:102ad0008800780009407800190007008004780019
:102ae00014003700380090000088a3001100320065
:102af00018019000a80090004800900098f6070088
:102b000098009000810f50000400320038009000bf
:102b10000003b300300498008084eb000000eb0059
:102b20001004980028009000000c78000100370085
:102b30008084eb00090078004f04be00000006000e
:102b40000200fa00889fbe00a0ff9f0001047800e9
:102b5000b1009000810478000904b2000200320044
:102b60000000fb00360037000118a30005003a0002
:102b70000103b30031049800190498000080eb00b1
:102b80002f003700580090000000e00006003a00d7
:102b90004800900012002000e680570070f6070001
:102ba0001904980024003700280090000000e0007d
:102bb00008003a00a0a6200020049800000c78002d
:102bc0002000200050049800100498000130a0005c
:102bd0003104980018019000a8009000480090006f
:102be0005ff6070028009000000c78000080eb00e2
:102bf0001004980018007800aff89700015878008a
:102c0000000c78002ff89700ea4f50000a003a00b5
:102c1000380090000088a3000700320018019000df
:102c2000a8009000480090004df607001904980095
:102c3000a8009000010c7800aff897000100fb009d
:0c2c40004f04be000080fa0000000600f7
:020000040000fa
:0200000401f009
:04000c00fbff0000f6
:020000040000fa
:0200000401f009
:04001000feff0000ef
:020000040000fa
:0200000401f009
:040014007fff00006a
:020000040000fa
:0200000401f009
:04001800ffff0000e6
:020000040000fa
:0200000401f009
:04001c00dfff000002
:020000040000fa
:10000800ac020000c22a0000d62a0000ea2a00003a
:10001800fe2a0000ac020000ac020000ac020000a6
:10002800ac020000ac020000ac020000aa2a0000ea
:10003800ac020000ac020000ac020000ac02000000
:10004800ac020000ac020000ee260000ac0200008a
:10005800ac020000ac020000ac020000ac020000e0
:10006800ac020000ac020000ac020000ac020000d0
:10007800ac020000ac020000ac020000ac020000c0
:10008800ac020000ac020000ac020000ac020000b0
:10009800ac020000ac020000ac020000ac020000a0
:1000a800ac020000ac020000ac020000ac02000090
:1000b800ac020000ac020000ac020000ac02000080
:1000c800ac020000ac020000ac020000ac02000070
:1000d800ac020000ac020000ac020000ac02000060
:1000e800ac020000ac020000ac020000ac02000050
:1000f800ac020000ac020000ac020000ac02000040
:10010800ac020000ac020000ac020000ac0200002f
:10011800ac020000ac020000ac020000ac0200001f
:10012800ac020000ac020000ac020000ac0200000f
:10013800ac020000ac020000ac020000ac020000ff
:10014800ac020000ac020000ac020000ac020000ef
:10015800ac020000ac020000ac020000ac020000df
:10016800ac020000ac020000ac020000ac020000cf
:10017800ac020000ac020000ac020000ac020000bf
:10018800ac020000ac020000ac020000ac020000af
:10019800ac020000ac020000ac020000ac0200009f
:1001a800ac020000ac020000ac020000ac0200008f
:1001b800ac020000ac020000ac020000ac0200007f
:1001c800ac020000ac020000ac020000ac0200006f
:1001d800ac020000ac020000ac020000ac0200005f
:1001e800ac020000ac020000ac020000ac0200004f
:0801f800ac020000ac020000a3
:020000040000fa
:10020800ac020000c22a0000d62a0000ea2a000038
:10021800fe2a0000ac020000ac020000ac020000a4
:10022800ac020000ac020000ac020000aa2a0000e8
:10023800ac020000ac020000ac020000ac020000fe
:10024800ac020000ac020000ee260000ac02000088
:10025800ac020000ac020000ac020000ac020000de
:10026800ac020000ac020000ac020000ac020000ce
:10027800ac020000ac020000ac020000ac020000be
:10028800ac020000ac020000ac020000ac020000ae
:10029800ac020000ac020000ac020000ac0200009e
:1002a800ac020000ac020000ac020000ac0200008e
:1002b800ac020000ac020000ac020000ac0200007e
:1002c800ac020000ac020000ac020000ac0200006e
:1002d800ac020000ac020000ac020000ac0200005e
:1002e800ac020000ac020000ac020000ac0200004e
:1002f800ac020000ac020000ac020000ac0200003e
:10030800ac020000ac020000ac020000ac0200002d
:10031800ac020000ac020000ac020000ac0200001d
:10032800ac020000ac020000ac020000ac0200000d
:10033800ac020000ac020000ac020000ac020000fd
:10034800ac020000ac020000ac020000ac020000ed
:10035800ac020000ac020000ac020000ac020000dd
:10036800ac020000ac020000ac020000ac020000cd
:10037800ac020000ac020000ac020000ac020000bd
:10038800ac020000ac020000ac020000ac020000ad
:10039800ac020000ac020000ac020000ac0200009d
:1003a800ac020000ac020000ac020000ac0200008d
:1003b800ac020000ac020000ac020000ac0200007d
:1003c800ac020000ac020000ac020000ac0200006d
:1003d800ac020000ac020000ac020000ac0200005d
:1003e800ac020000ac020000ac020000ac0200004d
:0803f800ac020000ac020000a1
:020000040000fa
:102c4c00582500006920000059250000692000006b
:102c5c005a25000069200000412500006920000071
:0c2c6c0054250000694e0000000000002c
:020000040000fa
:102c78000200fa0043000700cd42a800cda2a90037
:102c8800680007003c0b070000482800e10120000d
:102c9800f2f5070032030700cb0107003b020700eb
:102ca800bd00070000482800e1012000ebf50700ff
:102cb8004a000700cd42a9000000eb00000f780091
:102cc800e601070023080700004a8800114a880027
:102cd80070020700900120009e0f100003003200d0
:102ce800200320009e0f100021003a00c6000700b4
:102cf800900120009e0f100004003a009e03070078
:102d080041c3b30040cfb3008e0307002003200067
:102d18009e0f100016003a00fa030700d3070700b9
:102d2800e1c2b30040cfb300860307000000eb0008
:102d3800000f7800cdc2bf000080fb004200de001b
:102d4800614060000004a2006140600061406000d2
:102d58004201dd00d12c200091407800b0cfb300b3
:102d680000c0600002407000cde2b70052000700ca
:102d780053050700c2050700cda2a8001e0fe800f2
:102d8800cfff37000000fa0041742000914078001e
:102d980000ceb30000c060000004a00044e7b70004
:102da80000032000303a880044c7bf00f043b20057
:102db80044e7b7000000eb000016880000bc2000c4
:102dc800401688000000eb00201688000000eb0089
:102dd800601688000080fa00000006000000fa0073
:102de800000320002008880005e1a9000000eb008e
:102df800000888000080eb0010088800510a2000b5
:102e080091407800f0c8b30000c060000044a00002
:102e1800a5e0b7008460a9009460a8000080fa00cb
:102e2800000006000000fa00416a20009140780086
:102e380000ceb30000c060006040b300a4e6b70055
:102e4800003020002036880021e2a8002162a80076
:102e58001122200091407800c0cfb30000c060006c
:102e680021e2b7002082a9002062a90001222000e7
:102e78009140780090cfb30000c0600020e2b70016
:102e88002002a900a00120004011880023e2a90027
:102e980023a2a90023c2a9002342a80022c2bf007e
:102ea800f043b20022e2b70022a2a9002222a90020
:102eb8000080fa00000006000000fa00889fbe00ab
:102ec8008a9fbe00c6458000d745800086007800ee
:102ed800400620000009b8006030b90003027800fd
:102ee800000242004006200000b8b900000242007b
:102ef80084017800020478008045800091458000b4
:102f080002002000832c2400caf50700fdf5070005
:102f180080047800204680003146800002002000ae
:102f280003122400c3f50700f6f507000005780032
:102f3800e0458000f14580000200200003122400d3
:102f4800bcf50700eff50700800578000046800013
:102f5800114680000200200003122400b5f5070086
:102f6800e8f50700881f7800891f78008a1f780015
:102f78008b1f7800801f780060622900801f78000e
:102f8800eafb0700ec8757004f05be004f04be0060
:102f98000080fa00000006000000fa0001c6b30035
:102fa80010c0b3000b0007008040eb0020c0b30046
:102fb8000800070081c5b3000040eb0005000700ca
:102fc80000482800e101200024f507000080fa00ed
:102fd800000006000200fa00004f78001147980030
:102fe800830a0700c0c3b300920a07001e40780096
:102ff800900a07001e4090008e0a0700810a070009
:103008000080fa00000006001a00fa00889fbe003f
:103018008a9fbe00760a0700c0c3b300850a07006e
:1030280030c0b300830a0700760a07006b0a07005e
:10303800d0c3b3007f0a0700770a07000080fb00af
:103048004800dd00400f98008d0a0700720a07004b
:103058008080fb004e08900001004000400f98005f
:10306800870a07006c0a07000080fb004800dd00a3
:10307800200f9800820a0700670a07008080fb007b
:103088002e08900001004000200f98007c0a0700dd
:10309800610a07000080fb004800dd00300f98003f
:1030a800770a07005c0a07008080fb003e08900052
:1030b80001004000300f9800770a0700510a070006
:1030c8004e089000cf80de00aff507000004be0078
:1030d80060408000cf80de00abf507000001be0035
:1030e8000800be00d3f50700004788001147880094
:1030f8003e089000cf80de00a3f507000004be0064
:1031080070408000cf80de009ff507000001be0000
:103118000800be00c7f5070020478800314788002f
:103128002e089000cf80de0097f507000004be004f
:1031380080408000cf80de0093f507000001be00cc
:103148000800be00bbf507004047880051478800cb
:1031580000478000114780000001be0035f50700d8
:103168000004be0020478000314780000001be00f7
:1031780030f507000001be000800be00aef50700ec
:103188000004be0040478000514780000001be0097
:1031980028f507000001be000800be00a6f50700dc
:1031a80002f60700000f9800110f980000478000f2
:1031b800114780000e0990009e09900030f6070024
:1031c8000047880011478800204780003147800069
:1031d8000e0990009e09900029f6070020478800f4
:1031e8003147880040478000514780000e09900011
:1031f8009e09900022f60700404788005147880042
:10320800e0458000f145800012ee2200532624009c
:103218001bf60700600798007107980000468000b9
:103228001146800012ee22005326240014f60700ef
:103238004007980051079800084780001947800008
:103248006e009000fe0090004ff607000001be00df
:103258000800be00f7f407000005be0048478000dc
:10326800594780006e009000fe00900048f6070065
:103278000001be000800be00eef407000001be0019
:103288000a00be006cf50700200798003107980077
:1032980008478000194780004e009000de0090002b
:1032a8003bf607000001be000800be00e1f407007d
:1032b8000004be006e009000fe00900034f6070087
:1032c8000001be000800be00daf407000005be00d9
:1032d80028478000394780004e009000de009000ab
:1032e80029f607000001be000800be00d1f407005f
:1032f8000001be000a00be004ff507000005be0031
:1033080048478000594780004e009000de0090003a
:103318001ff607000001be000800be00c5f4070044
:103328000004be006e009000fe00900016f6070034
:103338000001be000800be00bef407000001be0088
:103348000a00be003bf50700008fbe002e0190006a
:10335800be0190001e00be000ff6070012ee22000c
:1033680053262400b3f40700020020004329240058
:1033780030f5070080468800914688008046800026
:10338800914680000200200043332c001ff60700fe
:103398000000e0000100340007003700804680008c
:1033a8009146800002002000433b240022f50700dc
:1033b80080468800914688004f05be004f04be0035
:1033c8000080fa00000006000000fa0001c8b300ff
:1033d800e0c3b3001400070000482800e101200002
:1033e8001ef407008040eb0050c1b3000e00070038
:1033f80091c1b30060c1b3000b0007008040eb002f
:1034080070c1b3000800070011c0b300e0c3b300e7
:103418000500070000482800e10120000ff407001c
:103428000080fa00000006000200fa00004f780051
:10343800114798006e09070000cdb3007d09070009
:103448001e4078007b0907001e409000790907009c
:103458006c0907000080fa00000006000600fa0068
:103468006309070000cdb30072090700d0c1b3009b
:10347800700907005909070010cdb3006d0907004e
:10348800650907000080fb004800dd001007980070
:103498007b090700600907008080fb001e00900080
:1034a8000100400010079800750907005a09070035
:1034b8000080fb004800dd00200798007009070025
:1034c800550907008080fb002e0090000100400095
:1034d800200798006a0907004f0907000080fb00d1
:1034e8004800dd00000f7800650907004a09070059
:1034f8000080fb001e0f4000670907004109070014
:103508002e009000cf80de009ff40700020020000c
:10351800631624005af5070002408000134080001b
:10352800c4f4070060478800714788001e009000b7
:10353800cf80de0094f40700020020006316240008
:103548004ff507002240800033408000b9f407009f
:1035580080478800914788001e007800cf80de00f1
:1035680089f40700020020006316240044f50700d0
:103578004240800053408000aef40700a047880016
:10358800b14788000080fa00000006000200fa0037
:10359800d0c0b3002e0007000080fb00000f7800a9
:1035a8001e40a0001e00780080407800d0c0b30004
:1035b8001a00070000c2b300250007000080fb00c6
:1035c800000f78001e0078006f0f60001e00780062
:1035d8008040780000c2b3001000070050c3b30059
:1035e8001b0007000080fb00000f7800100f200070
:1035f8001e0f60001e20a0001e007800804078008a
:1036080050c3b3000500070000482800e10120006e
:1036180092f307000080fa00000006000200fa009a
:10362800004f780011479800f108070000c8b30060
:10363800000907001e407800fe0807001e409000a1
:10364800fc080700ef0807000080fa0000000600e9
:103658000400fa0020479800e508070000c8b300f6
:10366800f40807002e409000f2080700db08070066
:1036780010c8b300ef080700e7080700004f7800fc
:1036880005090700df0807001e80fb000080fa001c
:10369800000006002000fa00881f7800d408070000
:1036a80000c8b300e308070020c0b300e108070022
:1036b800ca08070010c8b300de080700d6080700cc
:1036c80060479800ee080700d30807007047980085
:1036d800eb080700d008070050479800e8080700e3
:1036e800cd08070040479800e5080700ca0807000a
:1036f80030479800e2080700c708070020479800ed
:10370800e5080700bf0807004e4090000080fb0056
:103718004800dd00000f78005e4090000080fb004c
:103728001e0f70001e0078004280de00000f780037
:103738001e0078004d80de00e10f500015003a00b1
:103748009e00780000002e00008470006140b900df
:103758000df40700600f9800710f98000800e00052
:1037680007003d0002002000037824006e08900046
:10377800fe08900030f40700600f9800710f980061
:10378800680047006e099000fe0990000288be009c
:10379800050037001e007800cf80de00faf307002e
:1037a800680147000089be007e4090000080fb0051
:1037b8004800dd00000f78006e4090000080fb009c
:1037c8001e0f70001e0078004280de00000f780097
:1037d8001e0078004d80de00e10f500016003a0010
:1037e8009e00780000002e00008470006140b9003f
:1037f800e5f30700400f9800510f98000800e0001b
:1038080007003d0002002000037824004e089000c5
:10381800de08900008f40700400f9800510f980048
:10382800680047004e099000de09900022009800c9
:1038380033009800060037001e007800cf80de00b5
:10384800d1f3070068014700200198003101980072
:103858002e4090000080fb004800dd00000f78003b
:103868003e4090000080fb001e0f70001e00780094
:103878004280de00000f78001e0078004d80de00d8
:10388800e10f500016003a009e00780000002e005c
:10389800008470006140b900bbf30700200f980056
:1038a800310f98000800e00007003d0002002000ea
:1038b800037824002e089000be089000def307006d
:1038c800200f9800310f9800680047002e099000db
:1038d800be09900042009800530098000600370087
:1038e8001e007800cf80de00a7f3070068014700bc
:1038f8004001980051019800680047001000be0080
:1039080002002000035824005df40700a046880048
:10391800b146880068004700b00090002000900081
:10392800020020000358240055f40700c046880010
:10393800d146880068004700d00090004000900001
:1039480002002000035824004df40700e0468800d8
:10395800f14688004f0478000080fa000000060055
:103968000000fa00881f7800a0cab30064000700ae
:103978000080fb004804dd00b0cab3006000070007
:103988000080fb000000740090408800c0cab300ab
:103998005b0007000080fb004804dd00d0cab300cc
:1039a800570007000080fb0000007400a04088005a
:1039b800e0cab300520007000080fb004804dd00a5
:1039c800f0cab3004e0007000080fb00000074003e
:1039d800b040880000cbb300490007000080fb001e
:1039e8004804dd0010cbb300450007000080fb0051
:1039f800000074001041880020cbb300400007008d
:103a08000080fb004804dd0030cbb3003c00070019
:103a18000080fb00000074002041880040cbb30008
:103a2800370007000080fb004804dd0050cbb300de
:103a3800330007000080fb0000007400304188005c
:103a480060cbb3002e0007000080fb004804dd00b7
:103a580070cbb3002a0007000080fb000000740050
:103a6800c040880080cbb300250007000080fb0021
:103a78004804dd0090cbb300210007000080fb0064
:103a880000007400d0408800a0cbb3001c000700e1
:103a98000080fb004804dd00b0cbb300180007002d
:103aa8000080fb0000007400e0408800c0cbb30039
:103ab800130007000080fb004804dd00d0cbb300f2
:103ac8000f0007000080fb0000007400f040880031
:103ad800e0cbb3000a0007000080fb004804dd00cb
:103ae800f0cbb300060007000080fb000000740064
:103af800004188004f0478000080fa0000000600aa
:103b08000400fa0020479800b9070700e0ceb30088
:103b1800c80707002e409000c6070700af07070038
:103b2800f0ceb300c3070700bb070700004f7800bb
:103b3800d9070700b30707001e80fb000080fa00c2
:103b4800000006000200fa00004f780011479800b4
:103b5800a7070700e0ceb300b60707001e407800ad
:103b6800b40707001e409000b2070700a50707002a
:103b78000080fa00000006000800fa00889fbe00d6
:103b88006000b800008fbe0060cfb300dcff070004
:103b98000080fb004804dd0070cfb300d8ff0700a9
:103ba8000080fb0000004400cf80de00008fbe00d4
:103bb800f0ff2f00010020009e0178001e029000f7
:103bc80000017800010078000281610000006200b5
:103bd8006102b80024079800350798002e0090006d
:103be800be009000c000dd00000020002007980003
:103bf800310798002e009000be0090006112b800b6
:103c080024079800350798002e019000be01900007
:103c18000200700083807000008fbe003041800079
:103c2800010020003e041000ae84180020418000ee
:103c38006103b8008800780006007800000ab80020
:103c480007c0b900050178000001410009b0b900ba
:103c58000001410082027800c129dd004f20de000a
:103c680000807100cfa8de004041880051418800e3
:103c7800f0408000cf80de004b0add00c502de0088
:103c8800850272004b02dd00004180006101b9002d
:103c9800404180005141800002014000838148007a
:103ca8000400be00dbf30700604188007141880012
:103cb8004241800053418000604180007141800092
:103cc80002004000838048008041880091418800bc
:103cd800804180009141800068004000e0804800f9
:103ce8004c0add004400de0000007200c488de00db
:103cf800c0458800d14588004f04be000080fa0006
:103d0800000006002400fa00889fbe006000b8008a
:103d1800400f9800510f980060cfb30078ff07005c
:103d28000080fb004804dd0070cfb30074ff07007b
:103d38000080fb0000004400cf80de00400f9800a8
:103d4800510f98004e089000de089000f2ff2f00f7
:103d58000300200000027800810278000200780049
:103d68008300780000016200018062006102b800ef
:103d780004179800151798000e1090009e109000d8
:103d8800c000dd00000020000017980011179800ff
:103d98000e1090009e1090006112b8000417980051
:103da800151798000e1190009e11900002007000e7
:103db80083807000400f9800510f98008241800066
:103dc8009341800000062f00f1ff2f000200400001
:103dd80083804800200f9800310f9800d040800061
:103de8006104b900ae0890002e089000000ab800df
:103df800ae0890003e0890000088b90005017800e0
:103e080000014100ae0890003e0890000088b9000b
:103e18000001410082027800ccabde00c429dd003d
:103e28004c23de00068371008800780006007800c5
:103e3800000ab80007c0b900050178000001410078
:103e480009b0b90000014100820278004529dd006f
:103e58004b20de0000007100cba8de004041880046
:103e680051418800a04080006103b90086007800b5
:103e78002e089000000ab8003e08900000b0b90073
:103e880005017800000141002e0890000780b90064
:103e98000001410082027800c529dd004b20de00c8
:103ea80000807100cba8de00604188007141880065
:103eb8004241800053418000604180007141800090
:103ec8000200400083804800000f9800110f9800fe
:103ed80090408000cf80de004209dd00ce01de0088
:103ee800830171004201dd000e0890009e089000d9
:103ef800020040008380480062004000e0804800e3
:103f08004e0add004200de0000007200c208de003a
:103f18006007980071079800b04080006103b900fd
:103f2800860078002e089000000ab8003e0890002d
:103f380000b0b90005017800000141002e0890008a
:103f48000780b90000014100820278004329dd00a2
:103f58004d20de0000007100cda8de004041880041
:103f680051418800c04080006104b900ae0890004b
:103f78002e089000000ab800ae0890003e08900095
:103f88000088b9000501780000014100ae089000e2
:103f98003e0890000088b9000001410082027800c4
:103fa800ccabde00c429dd004c23de0006837100a3
:103fb8008800780006007800000ab80007c0b90039
:103fc800050178000001410009b0b9000001410075
:103fd8008202780040a8de00cf80de0060418800c1
:103fe8007141880042418000534180006041800057
:103ff8007141800002004000838048006200400058
:10400800e08048004e0add004200de000000720039
:10401800c288de00000f9800110f98001041800040
:104028006104b8000e0990009e0990000000280065
:104038000100200002004000838048000003be0009
:104048008800780006007800000ab80007c0b900a8
:10405800050178000001410009b0b90000014100e4
:10406800820278004129dd004f20de000000710047
:10407800cf28de0040079800510798004e099000ad
:10408800de0990006e009000fe00900000035100d1
:10409800818359008600780000352c000009b8009b
:1040a8006030b900030278000002420000352c009d
:1040b80000b8b90000024200840178002207980085
:1040c800330798002e009000be009000e00f5000cb
:1040d800e08f58000a0035002e009000be009000c6
:1040e80000004000818048004e019000de019000f1
:1040f800d7f20700600f9800710f98000900370089
:104108004e019000de0190002e009000be0090004d
:10411800cff207000000400081804800600f98003f
:10412800710f98006e089000fe089000a04188006a
:10413800b1418800a0418000b1418000c88cde00f8
:10414800c809dd004804de0008847100a041800031
:10415800b1418000c88bde00480add004803de005c
:10416800060372008800780006007800000ab8008c
:1041780007c0b900050178000001410009b0b90085
:1041880000014100820278004441880055418800be
:10419800464180005741800086007800e0bd20003d
:1041a8000009b8006030b90003027800000242003c
:1041b800e0bd200000b8b900000242008401780088
:1041c8004098de00cf80de004041880051418800e1
:1041d800a6418000b74180008600780030342e0068
:1041e800000ab8000080eb0000b0b90005017800b3
:1041f8000001410030342e0000b8b9000001410030
:104208008202780040a8de00cf80de00604188008e
:104218007141880042418000534180006041800024
:10422800714180000201400083814800f0ec2000c9
:10423800010020000200400083804800c489de009d
:10424800cc0add004401de0002817200a04180003a
:10425800b14180000200400083804800a0418800ee
:10426800b1418800a0418000b141800046f10700bb
:1042780002682e00537c240001f20700008fbe0064
:1042880012cb2d0023e423001e00be0080f207009d
:104298000001be000000200001f8230065f10700be
:1042a80002a02200d3722400e2f00700a045880093
:1042b800b14588004f04be000080fa0000000600e7
:1042c8000000fa00889fbe00a0468000b14680002a
:1042d80002002000030024006df207000004be0065
:1042e800c0468000d1468000020020000300240060
:1042f80067f207000001be000800be004ef107008b
:104308000004be00e0468000f14680000200200064
:10431800030024005ef207000001be000800be0092
:1043280045f10700a1f10700a04b8800b14b8800b8
:10433800a0468000b1468000a24b8000b34b8000ad
:10434800cff10700a0468800b1468800c04680002b
:10435800d1468000a24b8000b34b8000c8f1070013
:10436800c0468800d1468800e0468000f1468000bb
:10437800a24b8000b34b8000c1f10700e0468800e3
:10438800f1468800e2468000f3468000c04680007f
:10439800d146800000f2070012ee220053262400c6
:1043a800a4f00700604688007146880060468000d7
:1043b8007146800002002000432b240017f30700f9
:1043c8000000e00001003c000b003700c2468000fe
:1043d800d3468000a0468000b1468000eef1070079
:1043e80012ee22005326240092f00700404688006f
:1043f800514688001f0037006046800071468000e3
:1044080002002000432b2c0000f207000000e0000f
:10441800010035000d003700e0468000f1468000bd
:104428000001be0003f0a200a0468000b146800053
:10443800d9f1070012ee2200532624007df0070070
:1044480040468800514688000a003700e24680004e
:10445800f3468000a0468000b1468000cef10700f8
:1044680012ee22005326240072f00700404688000e
:10447800514688004f04be000080fa000000060084
:104488000800fa00889fbe008a9fbe008c9fbe006d
:104498000000eb00000f7800ec013700a04b800013
:1044a800b14b80000041eb007247980002002000e9
:1044b80003042400d5f107000000e00001003500e6
:1044c8000200370010c0b300704798007e4090008b
:1044d8000004a2000004e00015003a00a04b800090
:1044e800b14b80000041eb0062479800a299290077
:1044f80093e92300c9f207000000e00001003c0036
:104508000200370010c0b300604798006e4090006a
:104518000004a2000004e00005003a001e00e000cc
:1045280046003200120020009e0f110043003200a6
:10453800e0458000f14580000041eb0052479800bb
:1045480002002000a32a2400b0f107000000e000c8
:10455800010035000200370010c0b3005047980032
:104568005e4090000004a2000004e000a0013a00b0
:10457800e0458000f14580000041eb00424798008b
:1045880002002000a32a2c00a4f207000000e0008b
:1045980001003c000200370010c0b30040479800fb
:1045a8004e4090000004a2000004e00090013a0090
:1045b80000468000114680000041eb003247980019
:1045c80002002000a32a240090f107000000e00068
:1045d800010035000200370010c0b30030479800d2
:1045e8003e4090000004a2000004e00080013a0070
:1045f80000468000114680000041eb0022479800e9
:1046080002002000a32a2c0084f207000000e0002a
:1046180001003c000200370010c0b300204798009a
:104628002e4090000004a2000004e00070013a004f
:10463800220020009e0f11006d013a001e04780030
:104648001e007800c200dd00c08b20000080400002
:104658001005be001e007800c200dd00c08e2000dc
:10466800008040001002be001e007800c200dd007d
:1046780040932000008040001001be000400be00ee
:104688006cf00700024a8000134a8000e9ef070037
:104698000001be000a00be0067f007000001be006e
:1046a800c240dd00c08b2000008040000288be00b0
:1046b8001e0578001e007800c200dd004090200032
:1046c800008040001006be00004a8000114a8000a9
:1046d8000004be0009f0a2001e007800c200dd0040
:1046e800c0912000008040001002be001e0078002b
:1046f800c200dd0000912000008040001001be00d3
:104708000400be004cf007000001be000800be0017
:10471800c8ef07000004be00c0478000d1478000f2
:10472800024a8000134a8000c2ef07000001be0061
:104738000800be0040f007000001be000c00be00eb
:104748003df007000001be00c250dd00409020008f
:10475800008040000288be001e0578001e00780018
:10476800c200dd0000912000008040001004be005f
:10477800004a8000114a80000002be0005f0a20035
:104788001e007800c200dd008092200000804000fa
:104798001001be000400be00a6ef07000001be0025
:1047a8000800be0024f007000001be00c250dd0072
:1047b80000912000008040000288be001e0578009d
:1047c8001e007800c200dd00c0912000008040007b
:1047d8001004be00004a8000114a80000002be009a
:1047e80005f0a2001e007800c200dd0080922000c3
:1047f800008040001001be000400be008def0700dd
:104808000001be000800be000bf007000001be005a
:10481800c250dd00c0912000008040000288be0028
:104828001e0578001e007800c200dd00809220007e
:10483800008040001004be00e0478000f14780007f
:10484800024a8000134a80007aef07000001be0088
:104858000800be00f8ef07000001be00c250dd00ee
:1048680080922000008040000288be001e0478006c
:104878001e007800c200dd00808c2000008040000f
:104888001002be001e007800c200dd00c08b2000b0
:10489800008040001001be000400be00e5ef0700e4
:1048a8000001be00c240dd004094200000804000ae
:1048b8000288be001e0478001e007800c200dd00d9
:1048c80040902000008040001000be000248800098
:1048d80013488000d8ef07000001be00c240dd0089
:1048e80000952000008040000288be001e04780069
:1048f8001e007800c200dd004090200000804000cb
:104908001002be001e007800c200dd0000952000e5
:10491800008040001001be000400be0058f00700ef
:104928000001be00c240dd00c095200000804000ac
:104938000288be001e0478001e007800c200dd0058
:10494800c0912000008040001002be001e007800c8
:10495800c200dd0000952000008040001001be006c
:104968000400be0046f007000001be00c240dd00a2
:1049780080962000008040000288be001e05780056
:104988001e007800c200dd00c08b200000804000bf
:104998001004be001e007800c200dd00c095200093
:1049a800008040001002be001e007800c200dd003a
:1049b80040942000008040001001be000400be00aa
:1049c8001cef07000001be000800be009aef0700b8
:1049d8000001be00c250dd00c08b200000804000f6
:1049e8000288be001e0578001e007800c200dd00a7
:1049f80040932000008040001004be001e00780094
:104a0800c200dd0080962000008040001002be0039
:104a18001e007800c200dd004094200000804000a5
:104a28001001be000400be0002ef07000001be0036
:104a38000800be0080ef07000001be00c250dd0084
:104a480040932000008040000288be001e057800c8
:104a58001e007800c200dd00409020000080400069
:104a68001004be001e007800c200dd00c0952000c2
:104a7800008040001002be001e007800c200dd0069
:104a880040902000008040001001be000400be00dd
:104a9800e8ee07000001be000800be0065ef070051
:104aa8000001be00c250dd004090200000804000a0
:104ab8000288be001e0578001e007800c200dd00d6
:104ac80000912000008040001004be001e00780005
:104ad800c200dd00c0952000008040001002be002a
:104ae8001e007800c200dd00009120000080400018
:104af8001001be000400be00ceee07000001be009b
:104b08000800be004bef07000001be00c250dd00e8
:104b180000912000008040000288be001e05780039
:104b28001e007800c200dd00c09120000080400017
:104b38001004be001e007800c200dd008096200030
:104b4800008040001002be001e007800c200dd0098
:104b580040902000008040001001be000400be000c
:104b6800b4ee07000001be000800be0031ef0700e8
:104b78000001be00c250dd00c0912000008040004e
:104b88000288be001e0578001e007800c200dd0005
:104b980080922000008040001004be001e007800b3
:104ba800c200dd0080962000008040001002be0098
:104bb8001e007800c200dd00009120000080400047
:104bc8001001be000400be009aee07000001be00fe
:104bd8000800be0017ef07000001be00c250dd004c
:104be80080922000008040000288be001600370036
:104bf8001e0578001e007800c200dd00c08b200072
:104c0800008040001004be001e007800c200dd00d5
:104c1800c08e2000008040001000be00024a8000c4
:104c2800134a800083ee07000001be000800be00a2
:104c380001ef07000001be00c250dd00c08b20005c
:104c4800008040000288be001e0fe80020002000ff
:104c58009e0f100011fe34004f06be004f05be0027
:104c68004f04be000080fa00000006000600fa00ab
:104c78000000eb00200798006000b800008fbe001d
:104c8800d000200020079800200037002e00900058
:104c98000002e8002e009000c200dd0080832000a2
:104ca800008040001001be00c220dd00808320008b
:104cb800008040000288be002e0090000000e8003e
:104cc800c200dd0080832000008040001002be008a
:104cd8002e0090000000e800c200dd0040872000a0
:104ce800008040001001be000400be0051ee070025
:104cf8000001be001e00be00cfee0700008fbe0000
:104d08002e0090000000e900200798002e00900077
:104d18000000e000ddff3d00a0458000b1458000b7
:104d2800c0418800d1418800c0418000d141800045
:104d3800a2438000b34380003eee07001e01be0080
:104d4800bdee070080458800914588000080fa0084
:104d5800000006000800fa00881f780005e1a90095
:104d6800080880006140b90087ee07002007980016
:104d7800310798000800e00007003d00020020000d
:104d8800037824002e009000be009000aaee0700d1
:104d980020079800310798002e009000be00900070
:104da800008fbe0002b82b00e38324001e00be0063
:104db80033ef0700008fbe000000eb0000088800fa
:104dc80005e1a8001e00be004f0478000080fa002c
:104dd800000006003600f800809fbe00829fbe00db
:104de800849fbe00869fbe003400f80000002000ab
:104df800a00188000a00fa000000eb0030079800c4
:104e08000000eb00200798009540a9008540a90004
:104e180040c2a900070037002e0090000000e800fb
:104e280020079800ae00900000192000808f5000e5
:104e380004003c0040c2bf00614060000004e00084
:104e4800f5ff3200cda2a90040128000100798009b
:104e58009e00900041079800100620004e01900027
:104e6800800f51002d01320010062000ce00900066
:104e7800808f500022003e00000520004e01900067
:104e8800800f51008b00320000052000ce009000fa
:104e9800808f50000d003e00100420004e0190004d
:104ea800800f51005700320020042000ce009000ef
:104eb800808f500069003200000420004e019000ed
:104ec800800f51003900320086013700200520008c
:104ed800ce009000808f50008c003200200520000a
:104ee8004e019000800f51009e00390000062000fe
:104ef800ce009000808f5000f20032007901370018
:104f0800200720004e019000800f5100d70032008a
:104f180020072000ce009000808f50000d003e003a
:104f2800000720004e019000800f5100a3003200be
:104f380000072000ce009000808f5000b5003e0092
:104f4800200620004e019000800f51000901320018
:104f58006401370010082000ce009000808f5000b8
:104f680030013200100820004e019000800f5100df
:104f780005003e0000082000ce009000808f500001
:104f88001201320057013700200820004e0190001e
:104f9800800f510039013200400f2000ce009000f0
:104fa800808f50004b0132004e013700cdc2bf0048
:104fb8000080fb004200de00614060000004a200a7
:104fc80061406000614060004201dd00d12c20009a
:104fd80091407800b0cfb30000c06000024070007c
:104fe800cde2b70000468000114680000200200094
:104ff800033024008fed0700c2ed0700300798004a
:1050080038013700cdc2bf000080fb004200de003f
:10501800614060000004a2006140600061406000df
:105028004201dd00d12c200091407800b0cfb300c0
:1050380000c0600002407000cde2b700e04580008b
:10504800f1458000020020000330240079ed0700bc
:10505800aced07003007980022013700cdc2bf0031
:105068000080fb004200de00614060000004a200f6
:1050780061406000614060004201dd00d12c2000e9
:1050880091407800b0cfb30000c0600002407000cb
:10509800cde2b700204680003146800002002000a3
:1050a8000330240063ed070096ed070030079800f1
:1050b8000c013700cdc2bf000080fb004200de00bb
:1050c800614060000004a20061406000614060002f
:1050d8004201dd00d12c200091407800b0cfb30010
:1050e80000c0600002407000cde2b700004a8000b6
:1050f800114a800002402200439724004ded07002a
:10510800c8ef070030079800f6003700cdc2bf008f
:105118000080fb004200de00614060000004a20045
:1051280061406000614060004201dd00d12c200038
:1051380091407800b0cfb30000c06000024070001a
:10514800cde2b70080458000914580000200200034
:105158000330240037ed07006aed07003007980098
:10516800e0003700cdc2bf000080fb004200de0037
:10517800614060000004a20061406000614060007e
:105188004201dd00d12c200091407800b0cfb3005f
:1051980000c0600002407000cde2b700c04580004a
:1051a800d14580004709dd00c900de00810071009b
:1051b8004700dd0030079800ca003700cdc2bf00a5
:1051c8000080fb004200de00614060000004a20095
:1051d80061406000614060004201dd00d12c200088
:1051e80091407800b0cfb30000c06000024070006a
:1051f800cde2b700c0468000d14680000200200002
:10520800035824000bed07003eed07003007980017
:10521800b4003700cdc2bf000080fb004200de00b2
:10522800614060000004a2006140600061406000cd
:105238004201dd00d12c200091407800b0cfb300ae
:1052480000c0600002407000cde2b700a0468000b8
:10525800b14680000200200003582400f5ec070046
:1052680028ed0700300798009e003700cdc2bf0028
:105278000080fb004200de00614060000004a200e4
:1052880061406000614060004201dd00d12c2000d7
:1052980091407800b0cfb30000c0600002407000b9
:1052a800cde2b700e0468000f14680000200200011
:1052b80003582400dfec070012ed070030079800c0
:1052c80088003700cdc2bf000080fb004200de002e
:1052d800614060000004a20061406000614060001d
:1052e8004201dd00d12c200091407800b0cfb300fe
:1052f80000c0600002407000cde2b7008047800027
:10530800914780000200200063162400c9ec0700c2
:10531800fcec07003007980072003700cdc2bf00d0
:105328000080fb004200de00614060000004a20033
:1053380061406000614060004201dd00d12c200026
:1053480091407800b0cfb30000c060000240700008
:10535800cde2b7006047800071478000020020005e
:1053680063162400b3ec0700e6ec0700300798004a
:105378005c003700cdc2bf000080fb004200de00a9
:10538800614060000004a20061406000614060006c
:105398004201dd00d12c200091407800b0cfb3004d
:1053a80000c0600002407000cde2b700a047800056
:1053b800b147800002002000631624009dec07001e
:1053c800d0ec07003007980046003700cdc2bf0078
:1053d8000080fb004200de00614060000004a20083
:1053e80061406000614060004201dd00d12c200076
:1053f80091407800b0cfb30000c060000240700058
:10540800cde2b7002047800031478000020020002d
:105418000358240087ec0700baec0700300798000f
:1054280030003700cdc2bf000080fb004200de0024
:10543800614060000004a2006140600061406000bb
:105448004201dd00d12c200091407800b0cfb3009c
:1054580000c0600002407000cde2b7000047800045
:1054680011478000020020000358240071ec070057
:10547800a4ec0700300798001a003700cdc2bf001f
:105488000080fb004200de00614060000004a200d2
:1054980061406000614060004201dd00d12c2000c5
:1054a80091407800b0cfb30000c0600002407000a7
:1054b800cde2b7004047800051478000020020003d
:1054c800035824005bec07008eec070030079800b7
:1054d8000400370000d4200031002000dfeb070073
:1054e8000000fe0040128000000f7800070037001f
:1054f8002e0090000000e80020079800ae00900001
:1055080000322000808f500004003c0040c2bf00e1
:10551800624060000004e000f5ff3a003e009000a1
:10552800401288008540a9009540a8000080fa0034
:105538003400f9004f03be004f02be004f01be0009
:105548004f00be003600f900004006003400f800a5
:10555800881f780008002000a80188004f04780000
:105568000000fa009460a9008460a9000000fe0011
:105578000080fa003400f900004006003400f8000a
:10558800881f780008002000a80188004f047800d0
:105598000000fa000000fe000080fa003400f90064
:1055a800004006003400f800881f7800080020003a
:1055b800a80188004f0478000000fa000000fe00ef
:1055c8000080fa003400f900004006003400f800ba
:1055d800881f780008002000a80188004f04780080
:1055e8000000fa000000fe000080fa003400f90014
:1055f800004006003400f800881f780008002000ea
:10560800a80188004f0478000000fa000000fe009e
:0c5618000080fa003400f9000040060099
:020000040000fa
:105624000008000044010000020000009a9959009b
:105634003f14ae0007bf71003d8abf00e4fff100d4
:10564400ff3800000000000000000000000000001f
:105654000000000000000000000000000000000046
:105664000000000000000000000000000000000036
:105674000000000000000000000000000000000026
:105684000000000000000000000000000000000016
:105694000000000000000000000000000000000006
:1056a40000000000000000000000000000000000f6
:1056b40000000000000000000000000000000000e6
:1056c4000000000000009a0099193e009a99190000
:1056d4003ecdcc00cc3dcd00cccc3d00cdcccc00df
:1056e4003dcdcc00cc3dcd00cc4c3d00cdcc4c00d0
:1056f4003dcdcc004c3dcd00cc4c3d00cdcc4c0040
:105704003dcdcc00cc3ccd00cccc3c000000000016
:105714000000000000000000000000000000000085
:105724000000000000000000000000000000000075
:105734000000000000000000000000000000000065
:105744000000000000000000000000000000000055
:105754000000000000000000000000000000000045
:105764000000000000000000000000000000000035
:105774000000000000006f0012833a00a69b440062
:105784003b8fc200f53c0000000000000000000058
:105794000000000000000000000000000000000005
:1057a40000000000000000000000000000000000f5
:1057b40000000000000000000000000000000000e5
:1057c40000000000000000000000000000000000d5
:1057d4000000000000006f0012033b0044090000b9
:1057e40034000000000000007809000002000000fe
:1057f40000000000440a000026000000020000002f
:10580400460a6c000a0000006c0a0900000000004f
:1058140002006a000a0000006a0a06000201000091
:10582400000000000000000000000600020200006a
:10583400000000006a0a00000600000000000000ea
:105844007a090000a000000002000000010000002e
:105854000000000000000a0000000000000000003a
:10586400006400000000000000000000e8030000e5
:1058740000000000000010002700000000000000ed
:1058840000a08600010000000000000040420f005c
:105894000000000000008000969800000000000056
:1058a4000000e100f50500000000000000ca9a00b5
:1058b4003b00000000000000e40b54000200000064
:1058c4000000e80076481700000000000010a50062
:1058d400d4e8000000000000a0724e001809000087
:1058e400000040007a10f3005a0000000080c60057
:1058f400a47e8d000300000000c16f00f286230027
:10590400000000008a5d7800456301000000640027
:10591400a7b3b600e00d000000e889000423c70027
:105924008a0000001a0a00002a0000000200000099
:10593400286e75006c6c290000303100323334005d
:1059440035363700383941004243440045460000ab
:105954003031320033343500363738003961620073
:105964006364650066000000700a00000200000025
:0c59740002000000010000000000000024
:020000040000fa
:105980000000fa00200320002010880007e2a80091
:105990000782a9000742a9000722a8000702a90060
:1059a00006e2a90006a2a9000682a9000662a900d3
:1059b0000642a9000622a9000602a9000080fa00fa
:1059c000000006000000fa0086c0bf0062406000d0
:1059d0000004e000fcff32008620a9000080fa00ed
:1059e000000006000000fa000622a800f5ff0700ec
:1059f0000080fa00000006000000fa000602a8007d
:105a0000f0ff07000080fa00000006000000fa0026
:105a10000642a800ebff07000080fa000000060025
:105a20000000fa000662a800e6ff070000108000f0
:105a30000080fb000080fa00000006000400fa006d
:105a4000004f780009c2bf000044b2000004e0002b
